:020000020000FC
:040000000C94440315
:040020000C948100BB
:100040000C9448001CE214B911E51CBD08953CE075
:1000500001910E94330000273A953030C9F72A9A5F
:1000600000002A9808950EBD0DB507FFFDCF089535
:100070000896F1F708950CE00093810000E00093EA
:1000800089000CE30093880002E000936F0008955C
:100090000F930FB70F93FF93EF93F1E0E0E50E940A
:1000A0009A030E9488010E942700CF93CF93DF9389
:1000B0000F933F932F93C4E93991299108812370BD
:1000C0003370322B0323013010F0009306022F917E
:1000D0003F910F91FF91EF91CF91EF91FF910F9190
:1000E0000FBF0F911895002702E00093B00007E0C2
:1000F0000093B1000BEF0093B30004E00093700095
:1001000008956F930F9360910202639560930202CA
:10011000623029F40E94A6016627609302020F91C3
:100120006F911895CF93C0E5CCE70E94B6000E946E
:10013000AF03C0E70E94B6000E94AF03C4E60E946E
:10014000B6000E94AF03C4E60E94CD000E94AF0338
:10015000C0E70E94CD000E94AF03CCE70E94CD0013
:100160000E94AF03CF910E94DA0208950E94E70037
:100170000E94C8000E94F40088270E94C8000E94C4
:10018000E70088270E94C8000E94EE008827089593
:10019000C39583958A30E1F708950E94EE00C395D8
:1001A00083958A30E0F30E94E7008827C395839502
:1001B0008A30E1F70E94F4008827C39583958A303E
:1001C000E1F70E94E7000E949A03882708954F9361
:1001D00043E0C395C39548834F9108953F93C395DA
:1001E000C39538833F9108956F9367E0C395C39596
:1001F00068836F9108950F931F9300E01FEF0093A2
:10020000AC011093AD010093AE010093A8011093CF
:10021000A9010093AA010093A6011093A5010093E0
:10022000A4011F910F9108950F931F932F9307E03F
:1002300013E020E0209388012093890110938A0124
:100240002093940120939501009396012093A0019F
:100250002093A1011093A2012F911F910F91089556
:100260001F932F933F93FF93EF9320E03EE1F1E044
:10027000E0E513E01A9521931030E1F7E3953A9504
:100280003030B9F7EF91FF913F912F911F91089571
:100290000F931F932F9300E010E020E0209388013C
:1002A0002093890110938A01209394012093950152
:1002B000009396012093A0012093A1011093A20125
:1002C0002F911F910F9108952F930F9328E400E031
:1002D0002A9520300E943300D1F70F912F91089575
:1002E000C39583958430E1F788277883139513307D
:1002F000B9F71127770F08F47160CF3A88F30895A2
:100300001F93109109021395109309021F910895EC
:100310001F932F930E948001109109021A951030AB
:1003200021F02CE0E20F0C948E011091090218309C
:1003300019F41127109309022F911F91089591E04C
:100340000F930CE8009301020F910895C0910102F0
:100350000E94C701C39583958A30E1F70E94C701C7
:100360008827990F1395193021F400E900930102B1
:100370009160123121F404E90093010291601B3174
:1003800029F40CE8009301029160112708959883E5
:10039000C3959883C39508950E94AF0300E30E941C
:1003A0005A020E945A020E945A0200E20E945A0215
:1003B0000BE20E941E020FE00E941E0201E00E945A
:1003C0001E0206E00E941E020027112744270895FE
:1003D000FF93EF93F6E0E2E50E940302EF91FF91B5
:1003E0000895FF93EF93F6E0E4E60E940302EF9195
:1003F000FF910895FF93EF93F6E0E6E70E94030272
:10040000EF91FF9108950E9442020E940802089510
:100410000591003019F00E940F02FACF08950E9452
:10042000460200910402016000930402009105025B
:100430000160009305020E94510208950E94460245
:10044000009104020E7F00930402009105020E7FCA
:10045000009305020E94510208950093030240E2B6
:100460000E94740208958F939F938FEF9FEC0197E2
:10047000F1F79F918F91089501E00E941E020E9462
:100480003302089502E00E941E020895102F0D7F8E
:1004900008600093040212951D7F186010930502F6
:1004A00008950E945A0200910502009304020E94DE
:1004B0005A0208950E9461020E9467020E9461022E
:1004C0000895009104020B7F0E942D02089500916F
:1004D00004020C600E942D02089504E60093B80007
:1004E00004E00093BC00089504EA0093BC000E945D
:1004F0008B02440F4093BB000E94880200910302CC
:100500000093BB000E94880204E90093BC00089598
:1005100004E80093BC008091BC0087FFFCCF0895E5
:1005200016E41A95103049F00E94AC02299A219ADB
:100530000E94D20229980C9491020E94C00329982B
:1005400021980E94C003112708950F930FEF0A9579
:100550000030E9F70F9108950F9304E60A950030F3
:10056000E9F70F9108955C9A5D9A0E9490020E94AB
:10057000D2025C985D98B9F708952F9320E05D9AB8
:100580005C980E94D2025C9A5D980E9490025D98ED
:100590005C982395223099F72F91089548990C94EF
:1005A000CE0208950497F1F708953F065B4F666DFC
:1005B0007D077F67EF93FF930E94EC025091070243
:1005C0005A3039F40E941B030E94F8020E941F0354
:1005D0006395FF91EF9108950E941F0350910702C8
:1005E0005395E50F5093070275910E940F030895EC
:1005F0000E941F03509108025395E50F5093080283
:1006000075910E94090355275093070250910702E4
:10061000089544E2709303020E947402089545E233
:10062000709303020E94740208957FE30E940903FD
:100630000E940F0308957FE30E940F030895F5E0E1
:10064000EAEA089566275527509307025093080257
:100650000895202047414D4520535441525445446C
:100660002020200020202047414D45204F56455254
:100670002120202020005052455353205220544F17
:1006800020535441525420000E946D0200270E94C2
:10069000220000270E94730000270E943B000027D1
:1006A00011270E9430010E9464010E94A0030E9451
:1006B00015030E9422030E94FA010E94CE020E94AA
:1006C000E8010E94B3020E94FB000E9414010E94F4
:1006D0009F017894499B0E9492000091060201308C
:1006E00001FF0C946A030F930AE00E94300100930B
:1006F00002020A950E9414010E94AF030E94480161
:100700000E94AF030030A9F70F910E943001F894C6
:1007100000E00093060200930902009302020E9487
:10072000F1010E94BD0223E00E94AF032A95E1F788
:100730000C945703E0E5F1E00895D1E0C0E5089599
:10074000CF93DF937F93D1E0C0E50E949D03CA95CC
:100750007EEF0E9470017F91DF91CF9108954F93BA
:100760005F936F9345E055EF6FEF6A950000E9F7EF
:100770005A95D1F74A95B9F76F915F914F910895C6
:100780000F931F932F9300E115EF2FEF2A95F1F7A9
:100790001A95D9F70A95C1F72F911F910F910895D6
:00000001FF
